{
  "address": "0x86f7B953a0a9Aed781a8E3Fe3441Cd27C2f8D7a5",
  "abi": [
    {
      "inputs": [
        {
          "internalType": "address",
          "name": "priceFeedAdress",
          "type": "address"
        }
      ],
      "stateMutability": "nonpayable",
      "type": "constructor"
    },
    {
      "inputs": [],
      "name": "NotOwner",
      "type": "error"
    },
    {
      "stateMutability": "payable",
      "type": "fallback"
    },
    {
      "inputs": [],
      "name": "MINIMUM_USD",
      "outputs": [
        {
          "internalType": "uint256",
          "name": "",
          "type": "uint256"
        }
      ],
      "stateMutability": "view",
      "type": "function"
    },
    {
      "inputs": [
        {
          "internalType": "address",
          "name": "",
          "type": "address"
        }
      ],
      "name": "addressToAmount",
      "outputs": [
        {
          "internalType": "uint256",
          "name": "",
          "type": "uint256"
        }
      ],
      "stateMutability": "view",
      "type": "function"
    },
    {
      "inputs": [],
      "name": "fund",
      "outputs": [],
      "stateMutability": "payable",
      "type": "function"
    },
    {
      "inputs": [
        {
          "internalType": "uint256",
          "name": "",
          "type": "uint256"
        }
      ],
      "name": "funders",
      "outputs": [
        {
          "internalType": "address",
          "name": "",
          "type": "address"
        }
      ],
      "stateMutability": "view",
      "type": "function"
    },
    {
      "inputs": [],
      "name": "i_owner",
      "outputs": [
        {
          "internalType": "address",
          "name": "",
          "type": "address"
        }
      ],
      "stateMutability": "view",
      "type": "function"
    },
    {
      "inputs": [],
      "name": "withdraw",
      "outputs": [],
      "stateMutability": "nonpayable",
      "type": "function"
    },
    {
      "stateMutability": "payable",
      "type": "receive"
    }
  ],
  "transactionHash": "0x5acd26c23bafd71e9cd1289fde62e0fad9f1b65832da015b62e50834fcb4ae6f",
  "args": [
    "0xD4a33860578De61DBAbDc8BFdb98FD742fA7028e"
  ],
  "numDeployments": 1,
  "solcInputHash": "fd11305d0d3487209c8a77d387cdd315",
  "bytecode": "0x60a060405234801561001057600080fd5b50604051610dc8380380610dc883398181016040528101906100329190610110565b3373ffffffffffffffffffffffffffffffffffffffff1660808173ffffffffffffffffffffffffffffffffffffffff168152505080600260006101000a81548173ffffffffffffffffffffffffffffffffffffffff021916908373ffffffffffffffffffffffffffffffffffffffff1602179055505061013d565b600080fd5b600073ffffffffffffffffffffffffffffffffffffffff82169050919050565b60006100dd826100b2565b9050919050565b6100ed816100d2565b81146100f857600080fd5b50565b60008151905061010a816100e4565b92915050565b600060208284031215610126576101256100ad565b5b6000610134848285016100fb565b91505092915050565b608051610c6961015f600039600081816102a501526104f10152610c696000f3fe6080604052600436106100595760003560e01c80633c7e7d28146100725780633ccfd60b146100af5780636b69a592146100c6578063b60d4288146100f1578063dba6335f146100fb578063dc0d3dff1461012657610068565b3661006857610066610163565b005b610070610163565b005b34801561007e57600080fd5b5061009960048036038101906100949190610729565b61028b565b6040516100a6919061076f565b60405180910390f35b3480156100bb57600080fd5b506100c46102a3565b005b3480156100d257600080fd5b506100db6104e3565b6040516100e8919061076f565b60405180910390f35b6100f9610163565b005b34801561010757600080fd5b506101106104ef565b60405161011d9190610799565b60405180910390f35b34801561013257600080fd5b5061014d600480360381019061014891906107e0565b610513565b60405161015a9190610799565b60405180910390f35b674563918244f400006101a1600260009054906101000a900473ffffffffffffffffffffffffffffffffffffffff163461055290919063ffffffff16565b10156101e2576040517f08c379a00000000000000000000000000000000000000000000000000000000081526004016101d99061086a565b60405180910390fd5b6000339080600181540180825580915050600190039060005260206000200160009091909190916101000a81548173ffffffffffffffffffffffffffffffffffffffff021916908373ffffffffffffffffffffffffffffffffffffffff16021790555034600160003373ffffffffffffffffffffffffffffffffffffffff1673ffffffffffffffffffffffffffffffffffffffff16815260200190815260200160002081905550565b60016020528060005260406000206000915090505481565b7f000000000000000000000000000000000000000000000000000000000000000073ffffffffffffffffffffffffffffffffffffffff163373ffffffffffffffffffffffffffffffffffffffff1614610328576040517f30cd747100000000000000000000000000000000000000000000000000000000815260040160405180910390fd5b60005b6000805490508110156103d357600080828154811061034d5761034c61088a565b5b9060005260206000200160009054906101000a900473ffffffffffffffffffffffffffffffffffffffff1690506000600160008373ffffffffffffffffffffffffffffffffffffffff1673ffffffffffffffffffffffffffffffffffffffff168152602001908152602001600020819055505080806103cb906108e8565b91505061032b565b50600067ffffffffffffffff8111156103ef576103ee610930565b5b60405190808252806020026020018201604052801561041d5781602001602082028036833780820191505090505b506000908051906020019061043392919061061f565b5060003373ffffffffffffffffffffffffffffffffffffffff164760405161045a90610990565b60006040518083038185875af1925050503d8060008114610497576040519150601f19603f3d011682016040523d82523d6000602084013e61049c565b606091505b50509050806104e0576040517f08c379a00000000000000000000000000000000000000000000000000000000081526004016104d7906109f1565b60405180910390fd5b50565b674563918244f4000081565b7f000000000000000000000000000000000000000000000000000000000000000081565b6000818154811061052357600080fd5b906000526020600020016000915054906101000a900473ffffffffffffffffffffffffffffffffffffffff1681565b60008061055e8361058e565b90506000670de0b6b3a764000085836105779190610a11565b6105819190610a82565b9050809250505092915050565b6000808273ffffffffffffffffffffffffffffffffffffffff1663feaf968c6040518163ffffffff1660e01b815260040160a060405180830381865afa1580156105dc573d6000803e3d6000fd5b505050506040513d601f19601f820116820180604052508101906106009190610b40565b5050509150506402540be400816106179190610bbb565b915050919050565b828054828255906000526020600020908101928215610698579160200282015b828111156106975782518260006101000a81548173ffffffffffffffffffffffffffffffffffffffff021916908373ffffffffffffffffffffffffffffffffffffffff1602179055509160200191906001019061063f565b5b5090506106a591906106a9565b5090565b5b808211156106c25760008160009055506001016106aa565b5090565b600080fd5b600073ffffffffffffffffffffffffffffffffffffffff82169050919050565b60006106f6826106cb565b9050919050565b610706816106eb565b811461071157600080fd5b50565b600081359050610723816106fd565b92915050565b60006020828403121561073f5761073e6106c6565b5b600061074d84828501610714565b91505092915050565b6000819050919050565b61076981610756565b82525050565b60006020820190506107846000830184610760565b92915050565b610793816106eb565b82525050565b60006020820190506107ae600083018461078a565b92915050565b6107bd81610756565b81146107c857600080fd5b50565b6000813590506107da816107b4565b92915050565b6000602082840312156107f6576107f56106c6565b5b6000610804848285016107cb565b91505092915050565b600082825260208201905092915050565b7f4469646e27742073656e6420656e6f7567682065746865720000000000000000600082015250565b600061085460188361080d565b915061085f8261081e565b602082019050919050565b6000602082019050818103600083015261088381610847565b9050919050565b7f4e487b7100000000000000000000000000000000000000000000000000000000600052603260045260246000fd5b7f4e487b7100000000000000000000000000000000000000000000000000000000600052601160045260246000fd5b60006108f382610756565b91507fffffffffffffffffffffffffffffffffffffffffffffffffffffffffffffffff8203610925576109246108b9565b5b600182019050919050565b7f4e487b7100000000000000000000000000000000000000000000000000000000600052604160045260246000fd5b600081905092915050565b50565b600061097a60008361095f565b91506109858261096a565b600082019050919050565b600061099b8261096d565b9150819050919050565b7f43616c6c204661696c6564000000000000000000000000000000000000000000600082015250565b60006109db600b8361080d565b91506109e6826109a5565b602082019050919050565b60006020820190508181036000830152610a0a816109ce565b9050919050565b6000610a1c82610756565b9150610a2783610756565b9250828202610a3581610756565b91508282048414831517610a4c57610a4b6108b9565b5b5092915050565b7f4e487b7100000000000000000000000000000000000000000000000000000000600052601260045260246000fd5b6000610a8d82610756565b9150610a9883610756565b925082610aa857610aa7610a53565b5b828204905092915050565b600069ffffffffffffffffffff82169050919050565b610ad281610ab3565b8114610add57600080fd5b50565b600081519050610aef81610ac9565b92915050565b6000819050919050565b610b0881610af5565b8114610b1357600080fd5b50565b600081519050610b2581610aff565b92915050565b600081519050610b3a816107b4565b92915050565b600080600080600060a08688031215610b5c57610b5b6106c6565b5b6000610b6a88828901610ae0565b9550506020610b7b88828901610b16565b9450506040610b8c88828901610b2b565b9350506060610b9d88828901610b2b565b9250506080610bae88828901610ae0565b9150509295509295909350565b6000610bc682610af5565b9150610bd183610af5565b9250828202610bdf81610af5565b91507f80000000000000000000000000000000000000000000000000000000000000008414600084121615610c1757610c166108b9565b5b8282058414831517610c2c57610c2b6108b9565b5b509291505056fea26469706673582212202a1c5956b2ca0a501e13d1287b3d910045f9b8140aa70153c5c5d3a8332e7b0064736f6c63430008110033",
  "devdoc": {
    "kind": "dev",
    "methods": {},
    "version": 1
  },
  "userdoc": {
    "kind": "user",
    "methods": {},
    "version": 1
  },
  "storageLayout": {
    "storage": [
      {
        "astId": 324,
        "contract": "contracts/FundMe.sol:FundMe",
        "label": "funders",
        "offset": 0,
        "slot": "0",
        "type": "t_array(t_address)dyn_storage"
      },
      {
        "astId": 328,
        "contract": "contracts/FundMe.sol:FundMe",
        "label": "addressToAmount",
        "offset": 0,
        "slot": "1",
        "type": "t_mapping(t_address,t_uint256)"
      },
      {
        "astId": 333,
        "contract": "contracts/FundMe.sol:FundMe",
        "label": "priceFeed",
        "offset": 0,
        "slot": "2",
        "type": "t_contract(AggregatorV3Interface)102"
      }
    ],
    "types": {
      "t_address": {
        "encoding": "inplace",
        "label": "address",
        "numberOfBytes": "20"
      },
      "t_array(t_address)dyn_storage": {
        "base": "t_address",
        "encoding": "dynamic_array",
        "label": "address[]",
        "numberOfBytes": "32"
      },
      "t_contract(AggregatorV3Interface)102": {
        "encoding": "inplace",
        "label": "contract AggregatorV3Interface",
        "numberOfBytes": "20"
      },
      "t_mapping(t_address,t_uint256)": {
        "encoding": "mapping",
        "key": "t_address",
        "label": "mapping(address => uint256)",
        "numberOfBytes": "32",
        "value": "t_uint256"
      },
      "t_uint256": {
        "encoding": "inplace",
        "label": "uint256",
        "numberOfBytes": "32"
      }
    }
  }
}